:020000040800F2
:1000000058050020DD010008F31C0008591C0008F9
:10001000F11C0008630700081D2300080000000011
:10002000000000000000000000000000191D000892
:100030002108000800000000171D00081B1D000813
:10004000F7010008F7010008F7010008F7010008B0
:10005000F7010008F7010008F7010008F7010008A0
:10006000F7010008F7010008F7010008F701000890
:1000700065070008F701000871070008F70100088C
:10008000F7010008F7010008F7010008F701000870
:10009000F7010008F7010008F7010008F701000860
:1000A000F7010008F7010008F7010008F701000850
:1000B000F7010008F7010008F7010008F701000840
:1000C000F7010008F7010008F7010008F701000830
:1000D000F7010008F7010008F7010008F701000820
:1000E000F7010008F7010008F7010008F701000810
:1000F000F7010008F7010008F7010008F701000800
:10010000F7010008F7010008F7010008F7010008EF
:10011000F7010008F7010008F7010008F7010008DF
:10012000F7010008F7010008F7010008F7010008CF
:10013000F7010008F7010008F7010008F7010008BF
:10014000F7010008F7010008F7010008F7010008AF
:10015000F7010008F7010008F7010008F70100089F
:10016000F7010008F7010008F7010008F70100088F
:10017000F7010008F7010008F7010008000000007F
:10018000F7010008F7010008111E0008F701000838
:10019000F7010008F7010008F7010008F70100085F
:1001A000F7010008F7010008F7010008F70100084F
:1001B000F7010008F7010008F7010008F70100083F
:1001C000F7010008F7010008DFF80CD000F048FA4A
:1001D00000480047752C0008580500200648804755
:1001E00006480047FEE7FEE7FEE7FEE7FEE7FEE71C
:1001F000FEE7FEE7FEE7FEE7BD1D0008C9010008B7
:100200002DE9F05F0546002092469B46884606464B
:10021000814640241BE0284641464746224600F0DE
:1002200057F853465A46C01A914110D31146184602
:10023000224600F03EF82D1A67EB01084F46224691
:100240000120002100F035F817EB00094E41201E77
:10025000A4F10104DFDC484631462A464346BDE8A6
:10026000F09FD2B201E000F8012B491EFBD270478B
:100270000022F6E710B513460A4604461946FFF772
:10028000F0FF204610BD30B50B460146002020226D
:10029000012409E021FA02F59D4205D303FA02F593
:1002A000491B04FA02F52844151EA2F10102F1DCF3
:1002B00030BD202A04DB203A00FA02F1002070470A
:1002C0009140C2F1200320FA03F319439040704794
:1002D000202A04DB203A21FA02F00021704721FA9B
:1002E00002F3D040C2F12002914008431946704702
:1002F0002DE9FE4F804681EA0300C00F0C460090B6
:1003000021F0004123F00045B8EB0200A94105D2DD
:100310004046214690461C460B46024623F00040CC
:10032000104347D0270DC7F30A00C3F30A510290C8
:10033000401A019040286BDAC3F3130040F4801B8D
:100340000098924620B10023D2EB030A63EB0B0B1B
:1003500001985946C0F140025046FFF7AAFF0646F1
:100360000D4650465946019A00F08CF910EB0800F2
:100370006141002487EA115284EAE7731A4340D0AE
:10038000009A62B3019A012A4FEA075215DC001B5A
:1003900061EB02014FF0004202EA0752CDE9004250
:1003A000001C41F5801132462B4600F08CF903B059
:1003B000BDE8F08F40462146F9E7001B61EB0201E2
:1003C000001C41F5801300185B412018A2F50017AE
:1003D00047EB030140EAD570B6196D4111E06D0895
:1003E0004FEA360645EAC0754FEA0752001B61EB3B
:1003F0000201001C41F5801149084FEA3000001944
:10040000514132462B4603B0BDE8F04F00F04CB9E5
:100410000098012240000023D0EB020263EBE0735E
:10042000009821464FEAE074B8EB000061EB04014C
:10043000E9E783F000435BE781F0004158E72DE9ED
:10044000FE4F81EA030404F0004421F000410094CF
:100450004FF0000B23F0004350EA01045ED052EA53
:1004600003045BD0C3F30A54C1F30A552C44A4F22D
:10047000F3340194A0FB0254C1F3130141F4801141
:10048000C3F3130343F4801301FB024400FB034E48
:10049000840A970A44EA815447EA8357A4FB076811
:1004A00002958D0A05FB07854FEA932C04FB0C543B
:1004B0002705029D4FEA065847EA1637B5EB0805AF
:1004C0006EEB070C870E920E47EA811742EA831201
:1004D000A7FB0201B6EB0B0164EB00042B0D43EA12
:1004E0000C335E1844EB1C50DA465146E7FB020120
:1004F000C5F313044FEA0B3343EA14534FEA0432B3
:10050000019C43EA0603A4F10C040294009CCDE98B
:1005100000B400F0D8F803B0BDE8F08F0020014629
:10052000F9E72DE9F04D81EA030404F0004B21F0D6
:10053000004514464FF0000A23F0004150EA05023E
:1005400020D054EA01021DD0C5F30A570246C5F374
:100550001303C1F31300C1F30A5640F4801543F4AA
:100560008013A7EB0608101BD64608F2FD3873EB84
:10057000050002D308F1010801E092185B41B8F1CF
:10058000000F03DA00200146BDE8F08D00204FF493
:100590008011064684460EE0171B73EB050705D352
:1005A000121B63EB050306434CEA010C49084FEAB2
:1005B000300092185B4150EA0107EDD152EA030086
:1005C00012D082EA040083EA0501084305D0101B1B
:1005D000AB4106D20122002306E000224FF0004387
:1005E00002E06FF0010253101AEB06004CEB0851C9
:1005F00010EB0A0041EB0B01BDE8F04D00F054B8E0
:10060000C1F30A52C1F3130140F2FF3341F48011E8
:100610009A4202DA00200146704740F233439A4280
:10062000A2F2334202DC5242FFF752BEFFF741BE54
:1006300030B5041E71F1000404DB4FF00044404269
:1006400064EB0101141E73F1000405DB1C464FF03E
:100650000043524263EB0403994208BF904230BD0D
:10066000064C074D06E0E06840F0010394E80700FF
:1006700098471034AC42F6D3FFF7AAFDC02C00080F
:10068000E02C0008202A06DBCB17203A41FA02F0C2
:1006900043EAE07306E041FA02F3D040C2F12002DF
:1006A000914008431946704710B5141E73F10004B9
:1006B00008DA401C41F1000192185B411A4301D154
:1006C00020F0010010BD2DE9F04D92469B4611B17E
:1006D000B1FA81F202E0B0FA80F220329046FFF7E0
:1006E000E8FD04460F4640EA0A0041EA0B01534682
:1006F0005A46084313D0114653EA010019D0C8F1F5
:1007000040025046FFF7E4FD05460E465046594666
:100710004246FFF7CEFD084305D0012004E0204605
:100720003946BDE8F08D0020054346EAE0762C43CB
:1007300037430A986305E40AA0EB08000022FD0A8B
:1007400044EA47540A3002D500200146E9E7010592
:1007500010196941DDE9084500196941BDE8F04D0E
:10076000A2E7FEE7014800F06FB80000F4000020A7
:10077000014800F069B800009400002001681823C7
:10078000CAB2103AB2FBF3F2054B6FF30901032A28
:100790009B5CC36500D9091D816508467047000050
:1007A000A02C000810B583694FF0C074826A01461E
:1007B000002053B1B3F5005F15D072B1012A0CD0FF
:1007C000022A0AD0032A09D104E01AB1012A06D06C
:1007D000022A03D1C96AC90100D5012010BDC96A26
:1007E000A142FAD010BD002AF7D0012AF2D0022A85
:1007F000F3D0032AF3D010BD30B50468256825F482
:1008000080252560046863608368402B036803D0FB
:1008100099600068C26030BD9A600068C16030BDF8
:100820007047704790F83510022903D08021416548
:1008300001207047052180F835100068016821F01B
:1008400001010160002070472DE9F84304464FF094
:100850000009644B0820CDF800904FF41652A56DA6
:1008600094F85C101B682E68B3FBF2F700FA01F1F4
:1008700031420FD021680A6852070BD50A6822F06E
:1008800004020A6094F85C108840A860606D40F033
:100890000100606594F85C104FF0010808FA01F05F
:1008A000304208D021684969090604D5A860606D06
:1008B00040F00200606594F85C10042088403042EB
:1008C00008D021680968890704D5A860606D40F0E8
:1008D0000400606594F85C1010208840304218D005
:1008E00021680968090714D5A860206801684903D0
:1008F00004D50068000308D5A16C07E00168C905AC
:1009000003D4016821F008010160216C09B120467F
:10091000884794F85C1020208840304231D021680C
:100920000968C9062DD5A86094F835000528206807
:10093000016806D0490347D5006800031DD4616CE7
:100940001CE021F0160101602068416921F080015E
:100950004161206C08B9A06C20B12068016821F0C9
:100960000801016094F85C303F229A40AA6084F844
:10097000349084F83580216D1FE0E16B09B1204689
:100980008847606D00282BD0606DC00714D005200B
:1009900084F835002068016821F0010101600098A9
:1009A000401C0090B84203D820680068C007F6D108
:1009B00084F8349084F83580E16C002910D001B0BF
:1009C0002046BDE8F04308470168C905D5D403684F
:1009D00023F01003036084F8349084F83580CCE76A
:1009E000BDE8F8831C0000202DE9F047044600F024
:1009F000A9F9054664B14FF0000984F8349002214A
:100A000084F835102068016821F0010101600EE0D2
:100A10000120BDE8F08700BF00F094F9401B0528D5
:100A200005D920216165032084F83500F1E72068AD
:100A30000068C007F0D1D4E90020D4E90251D4E91C
:100A4000043C284304F1180519430843116895E84C
:100A5000E00140EA0C001C4B2843194040EA060024
:100A600040EA0700B8F1040F40EA010003D1D4E9DD
:100A70000B1319430843106020680126656A40691A
:100A8000042D20F0070045EA00050CD1D4E90A0145
:100A9000054341B12046FFF785FE20B14020606547
:100AA00084F83560B4E7206845612046FFF766FEAC
:100AB00094F85C303F229A408260C4F8549084F8E5
:100AC00035600020A5E700003F8010F02DE9F041DF
:100AD000044690F8340000250128A66D0ED094F845
:100AE00035C00127002084F83470BCF1010F07D015
:100AF000022584F834002846BDE8F0810220FBE797
:100B0000022784F8357060652046FFF775FE94F87B
:100B10005C103F208840B0602068016841F01601F9
:100B200001602068416941F080014161206C20B181
:100B30002068016841F0080101602068016841F007
:100B400001010160D7E7000070B5044600F0FAF833
:100B50000546601C02D004480078044400F0F2F816
:100B6000401BA042FAD370BD100000202DE9F84FC1
:100B7000DFF89CE100224FF001084FF0030B4FF02B
:100B80000F0A00BF0B6808FA02F42340A34271D198
:100B90004D68022D01D0122D0FD1D5080E695707CF
:100BA00000EB8505A9462D6AFF0E0AFA07FCBE4038
:100BB00025EA0C052E43C9F820600F795500066818
:100BC0000BFA05FC07F0030726EA0C06AF40374393
:100BD00007604E68012E05D0022E03D0112E01D0E1
:100BE000122E0ED18668CF6826EA0C06AF40374336
:100BF000876046680F79A643C7F3001797403743CD
:100C00004760C4688E6824EA0C04AE402643C66080
:100C10004C68E40075D53F4C256845F48045256057
:100C2000246822F00306950704F4804400943A4CAB
:100C30002D0F2644D6F80848DFF8E0C00AFA05F779
:100C4000604524EA070401D100272EE0344FB84262
:100C500001D1012729E0334FB84201D1022724E016
:100C6000314FB84201D103271FE0304FB84202D1C3
:100C700004271AE045E02E4FB84201D1052714E0C1
:100C80002C4FB84201D106270FE02B4FB84201D1BB
:100C900007270AE0294FB84201D1082705E0284F6D
:100CA000B84201D1092700E00A27AF402743754623
:100CB000C6F808784E68DEF80040F60324EA03041C
:100CC00000D51C43124E2C60361D4D683468AD03B0
:100CD00024EA030400D51C430D4F346008374D68E7
:100CE0003C68ED0224EA030400D51C43084D3C6037
:100CF0000C354E682C68B60224EA030400D51C4368
:100D00002C60521C102AFFF43DAFBDE8F88F0000A4
:100D1000003C0140443802400030014000000240E5
:100D20000004024000080240000C02400010024093
:100D30000014024000180240001C02400020024043
:100D40000024024001488068704700001000002025
:100D500002488168027811448160704710000020C9
:100D6000032010B500F06CF8002000F005F800F04A
:100D700023F8002010BD000070B50D4D04464FF45F
:100D80007A700C4A29781268B0FBF1F0B2FBF0F0EF
:100D900000F0A0FD48B9102C07D200222146501EB9
:100DA00000F02EF800206C6070BD012070BD0000C6
:100DB000100000201C0000200A4808B5016841F01E
:100DC00080510160006800F0805000900548001DCF
:100DD000016841F480410160006800F480400090A7
:100DE00008BD000040380240410900F01F028900A0
:100DF000012001F1E0219040C1F80001704700009E
:100E00000E4BF0B41B680D46C3F30223C3F1070673
:100E1000042E00D90426191D072901D2002300E061
:100E2000DB1E012404FA06F19C40491E2940641E81
:100E3000994014402143F0BC00F05CBF0CED00E091
:100E4000064900F0070210B54FF6FF040868044B8E
:100E5000204040EA02201843086010BD0CED00E07D
:100E60000000FA051848F8B5016841F080510160AA
:100E70000068164C00F080500090206840F48030EC
:100E80002060FFF75FFF4FF47A76054605E000BF6C
:100E9000FFF758FF401BB0420FD86068C003F7D57A
:100EA000206840F400302060FFF74CFF054606E064
:100EB000FFF748FF401BB04201D90320F8BD60682E
:100EC0008003F5D50020F8BD403802400070004096
:100ED0002DE9F84F04460078DFF824944FF000061F
:100EE0003746C0070ED0D9F8001021F40001C9F828
:100EF0000010D9F80010626B1143C9F80010606B44
:100F000000B90126FE4D2068843500030ED5E16B43
:100F1000286820F4401008432860E06BB0F5801F7B
:100F200001D010B102E0012600E0012720684FF453
:100F3000800BC0020CD5216C286820F440000843C7
:100F40002860206C584501D1012601E000B9012735
:100F50002068C10100D50126800666D5E8483830F2
:100F6000016841F0805101600068DFF898A300F04B
:100F700080500090DAF8001041F48071CAF8001037
:100F8000FFF7E0FE804605E0FFF7DCFEA0EB08007F
:100F900064287DD8DAF80000C005F5D5DFF8608355
:100FA00008F16808D8F8000010F440702AD0218EAB
:100FB00001F44071814225D0D8F80010D8F8002003
:100FC00021F4407142F48032C8F80020D8F80020A3
:100FD00022F48032C8F80020C8F80010D8F80000C9
:100FE000C0070FD0FFF7AEFE824607E0FFF7AAFE6C
:100FF000A0EB0A0141F288308142CAD8D8F800003B
:101000008007F3D5206BC0F3012103297ED0D9F8E6
:10101000001021F4F811C9F80010228ED8F8001041
:10102000C2F30B021143C8F800102078C00607D5A0
:10103000286820F0807028602868A16B0843286029
:101040002188AF488830490405D5626E016821F4D3
:101050004031114301602188090405D5A26E016861
:1010600021F44021114301602168C90305D5E26ED6
:10107000016821F44011114301602168890305D5FD
:10108000226F016821F4400111430160217800E0E2
:1010900018E1490605D5626C016821F0030111438E
:1010A00001602178090605D5A26C016821F00C01C8
:1010B000114301602188C90505D5E26C016821F062
:1010C0003001114301602188890505D5226D016831
:1010D00021F0C001114301602188490505D5626DE9
:1010E000016821F44071114301602188090505D58B
:1010F000A26D016821F44061114301602188C90497
:1011000007D5E26D016821F4405100E041E0114350
:1011100001602188890405D5226E016821F44041CF
:10112000114301602168490205D5A26F016821F0D1
:1011300080611143016021684FF0006A890209D57E
:10114000E26F016821F0006111430160E16F5145D8
:1011500000D1012721680A0700D50127490305D5D9
:10116000626F016821F0407111430160216809023A
:1011700006D5D4F88020016821F080511143016028
:10118000DFF88491012E0ED02068B0F1007F0AD0E4
:101190008FE05E4AD9F80030104023F4F812024381
:1011A000C9F8002039E7D9F800004E4620F08060E9
:1011B000C9F80000FFF7C6FD804605E0FFF7C2FD55
:1011C000A0EB080064287DD830680001F6D42178AF
:1011D0004B487C30C90712D0616B81B9237A6268B1
:1011E0000168D0F800C09201C1F3014142EA014216
:1011F000CCF3036142EA016141EA037101602168B5
:101200000A0303D5E26BB2F5801F04D0C9021AD5D8
:10121000216C594517D16368016894F80CC00268C5
:101220009B01C1F3014143EA0141C2F3027241EA69
:101230000C6141EA027101602968626A21F01F01B4
:10124000521E114329602168C90110D5238A6268A2
:101250000168D0F800C09201C1F3036142EA034281
:1012600042EA0162CCF3027142EA01710160216835
:1012700089010CD56168228A237B94F808C0890112
:1012800041EA024141EA036141EA0C7101603168BF
:10129000B04641F080613160FFF754FD064604E03E
:1012A000FFF750FD801B64280CD8D8F8000000011F
:1012B000F6D56FB3D9F800004E4620F08050C9F83B
:1012C000000000E079E0FFF73DFD074605E000BFC4
:1012D000FFF738FDC01B64286FD83068C04380001A
:1012E000F6D50748216880300A0301D5E26B1AB1B0
:1012F000C90225D5216C19BB63690168277E08E006
:10130000083802400070004000380240FFFCFF0F28
:101310005AE00268C1F301419B0143EA0143C2F371
:10132000027143EA076242EA0171016029686FF0C5
:10133000FF03A26A21F4F85103EB02221143296052
:101340002168890212D5E16F51450FD1238C626962
:10135000016807689201C1F3036142EA034242EA6D
:101360000162C7F3027142EA017101602178090745
:1013700016D561690268D0F800C08B01277FC2F3DF
:101380000362CCF3014143EA014141EA026141EACF
:10139000077101602868E16A20F440300843286042
:1013A000306840F080503060FFF7CCFC044607E026
:1013B000FFF7C8FC001B642802D90320BDE8F88FA2
:1013C0003068C0438000F3D40020F7E72DE9F047F0
:1013D00005000F4663D0444E306800F00F00B8425D
:1013E00009D2306820F00F0038433060306800F0D8
:1013F0000F00B84253D128683C4C810712D54007F2
:1014000003D5206840F4E05020602878000703D519
:10141000206840F460402060A968206820F0F00057
:10142000084320602878C0072AD030496868083906
:10143000012810D00968022810D0890700292EDA67
:10144000216821F0030101432160FFF77BFC804606
:1014500041F288390DE009688903EFE78901EDE77A
:10146000FFF770FCA0EB0801494502D90320BDE855
:10147000F0876868216801F00C01B1EB800FEFD1B3
:10148000306800F00F00B8420BD9306820F00F0030
:1014900038433060306800F00F00B84201D00120BE
:1014A000E5E72878400705D5E968206820F4E05092
:1014B000084320602878000706D52869216821F4B0
:1014C000604141EAC000206000F036F82168084A17
:1014D000C1F30311515CC840064908600020FFF7C2
:1014E0004BFC0020C3E70000003C024008380240EB
:1014F000A82C00081C000020044905480968006861
:10150000044AC1F38221515CC84070470838024048
:101510001C000020B82C0008044905480968006830
:10152000044AC1F34231515CC84070470838024058
:101530001C000020B82C0008154910B51548096892
:1015400011F00C0213D01449042A0FD0082A0ED12E
:101550000F4C241F2268236802F03F025B0207D56C
:101560002068C0F38810A0FB010106E0084610BD0A
:101570002168C1F38811A1FB00010023FEF740FEA2
:101580002168C1F30141491C4900B0FBF1F010BDD5
:10159000083802400024F40040787D012DE9F84F1E
:1015A00005004FF000076ED02878DFF81C93A9F1F2
:1015B000040AC007AAF104044CD0D9F80010484628
:1015C000C1F38101012908D00068C0F3810002281D
:1015D0000AD1DAF80000400206D52068800339D528
:1015E00068680028DFD035E06868B0F5803F0BD030
:1015F00010B1B0F5A02F11D0206820F48030206009
:10160000206820F4802002E0206840F480302060D0
:10161000686890B1FFF796FB06460AE0206840F440
:1016200080202060F0E700BFFFF78CFB801B642860
:1016300072D820688003F7D50CE0FFF783FB0646DD
:1016400005E000BFFFF77EFB801B6428F0D8206810
:101650008003F7D42878800742D5D9F8001048468F
:1016600011F00C0F08D00068C0F3810002280BD1E4
:10167000DAF80000400207D42068800718D5E8682F
:10168000012800D114E01CE1E8680028206817D088
:1016900040F001002060FFF755FB064605E000BF63
:1016A000FFF750FB801B0228C2D820688007F7D5BF
:1016B0002869216821F0F80141EAC00020600FE0AC
:1016C00020F001002060FFF73DFB064605E000BF6B
:1016D000FFF738FB801B02281ED820688007F7D44C
:1016E0002878000729D5784869696C300029804638
:1016F000016812D041F001010160FFF723FB0646AB
:1017000005E000BFFFF71EFB801B022804D8D8F8B5
:1017100000008007F6D510E089E021F001010160AA
:10172000FFF710FB064604E0FFF70CFB801B0228C6
:101730007DD8D8F800008007F6D4287840076BD50C
:10174000DFF8848108F13808D8F80000C0000BD415
:10175000D8F8001041F08051C8F80010D8F8000007
:10176000012700F08050009058480168C90512D444
:101770000168834641F480710160FFF7E3FA064691
:1017800005E000BFFFF7DEFA801B64284FD8DBF8C6
:101790000000C005F6D54C4EA868683601280AD06E
:1017A00008B1052811D0306820F0010030603068A1
:1017B00020F0040002E0306840F001003060A868CA
:1017C000A0B1FFF7BFFA83460CE0306840F0040098
:1017D0003060F0E7FFF7B6FAA0EB0B0141F288307A
:1017E000814266D830688007F4D50EE0FFF7AAFA88
:1017F000834607E0FFF7A6FAA0EB0B0141F2883021
:10180000814256D830688007F4D42FB1D8F8001040
:1018100021F08051C8F80010A869C8B3D9F80010A9
:10182000C1F3810102294CD00228206800E040E089
:1018300020F08070206003D0FFF784FA05463BE07B
:10184000FFF780FA064604E0FFF77CFA801B0228C7
:101850002FD820688001F7D4D5E90962D5E90701BE
:101860001B4B570895F82C20084303EB074343EA2A
:101870008611084340EA026040F00050CAF80000B8
:10188000206840F080702060FFF75CFA054606E0B3
:1018900015E000BFFFF756FA401B022809D8206860
:1018A0008001F7D50BE000BFFFF74CFA401B022880
:1018B00002D90320BDE8F88F20688001F4D400200D
:1018C000F8E70120F6E70000083802400070004009
:1018D0000000FFFF401EB0F1807F10B501D3012052
:1018E00010BD4FF0E02460610F21601700F002FA94
:1018F0000020A0610721216110BD704770B501680B
:101900000446C8690A688B6810F00F0F5CD003F0BA
:10191000010502F490762E4369D0C60707D0D6059C
:1019200005D501260E62E16E41F00101E1668107F5
:1019300008D5D90706D0266802213162E16E41F050
:101940000401E166410708D5D90706D023680421C0
:101950001962E16E41F00201E16601070AD502F069
:101960002001294306D0236808211962E16E41F065
:101970000801E166E16E002932D0800604D59006A8
:1019800002D5204600F030FBE06E000703D420684B
:101990008068400625D5204600F00FFB206881684E
:1019A00049061AD5816821F040018160606EA0B1BE
:1019B0002F490165606EFEF735FF002810D0606E7C
:1019C000016DBDE870400847830610D593060ED51B
:1019D0002046BDE8704000F007BB2046FFF78DFFB2
:1019E00070BD2046FFF789FF0020E06670BD03064A
:1019F0002FD513062DD594F869002128F6D1B4F817
:101A0000520020B1A068B0F5805F0AD00BE00868F2
:101A100020F0800008602068016841F0400101600A
:101A200070BD206960B1E06C411CE1642168007800
:101A3000C1F82800B4F85200401EA4F8520070BD4E
:101A4000E06C0088C0F308008862E06C801CE064F1
:101A5000F0E74006F3D55006F1D50B68202220466A
:101A600023F040030B6084F8692000F0F3F870BDA8
:101A7000251F000810B5040003D094F8690010B1C8
:101A800007E0012010BD002084F86800204600F027
:101A900027F8242084F869002068016821F00101FA
:101AA0000160204600F0DCFA0128EBD0606A10B13A
:101AB000204600F0B3F92068416821F4904141606C
:101AC0002068816821F02A0181602068016841F066
:101AD000010101602046BDE8104000F003BA00009B
:101AE0002DE9F04387B0074614216846FEF7C0FB96
:101AF0002F493868884257D12E48016841F080410B
:101B00000160006800F0804005902A4810380168A4
:101B100041F02001016000680024022100F0200053
:101B20000590C02008238DE8130003222248CDE948
:101B300003236946FFF71AF8204E4FF48069204AC4
:101B40004FF0206830463260C6E90184C6E9034997
:101B50007461B461F46134627462FEF745FF08B1E8
:101B6000FEF75FFE154D40237E666035B76305F1D5
:101B70000800134A303A80E818026C612846AC61CC
:101B8000EC612C626C62C5E90028FEF72DFF08B1FC
:101B9000FEF747FE00223D6652201146AF63FFF775
:101BA0002FF95220FFF720F907B0BDE8F0830000BD
:101BB00000780040403802400014024094000020A9
:101BC000586002407047000070B5044690F8690004
:101BD000202836D191B38AB394F86800012830D018
:101BE000012384F86830E1640025A4F85020212006
:101BF000A4F85220E56684F86900236E1248D86381
:101C0000236E12481864236E1148D8641346206E60
:101C100005652068266E4C3400F128023046FEF738
:101C200055FF54F84C1C40200862257754F84C0CA2
:101C3000816841F080018160002070BDFFE70120D4
:101C4000FBE70220F9E70000831F0008B11F00082E
:101C5000391F000870477047FEE700000D4808B5BF
:101C6000016841F40011016000680022114600F48F
:101C7000001000900C20FFF7C3F80C20FFF7B4F819
:101C800000220E201146FFF7BBF8BDE808400E20E9
:101C9000FFF7AAB830380240054808B5016841F09E
:101CA00020010160006800F02000009008BD0000E5
:101CB000303802400D48002110B50B4C0C224FF477
:101CC000E1330460C0E90131C160C0E904128161FF
:101CD000C16101624162FFF7CDFE002803D0BDE87B
:101CE0001040FEF79EBD10BD00780040240000208B
:101CF000FEE77047090700284FEA116106DA00F095
:101D00000F0000F1E02080F8141D704700F1E02082
:101D100080F80014704770477047FFF719B800004B
:101D200030B5B3B0302121A8FEF7A2FA14212DA8B6
:101D3000FEF79EFA84216846FEF79AFA1D4801686C
:101D400041F080510160006800F0805032901A48E4
:101D5000016821F4404141F48041016000680025A0
:101D60000DF1A40C00F44040329002242194102183
:101D700008226023CDE927458CE81C0001202C9423
:101D8000CDE9240121A8FFF709FCFFF76BF88021BA
:101D9000CDE92F150F203195CDE92D0401212DA876
:101DA000FFF714FBE002179500906846FFF790F8E4
:101DB00033B030BD4038024000700040104A30B5AA
:101DC0001048146800210F4B44F470041460083369
:101DD00005680D4A0D4C45F0010505601960036862
:101DE000051D1340074A03600C322C600568E305AB
:101DF000034C25F480250560803C1160236030BDD4
:101E000088ED00E000380240FFFFF6FE10300024AD
:101E10000148FFF773BD00002400002090F8241053
:101E2000C90706D00168836A4A6822F400321A435F
:101E30004A6090F82410890706D50168C36A4A6889
:101E400022F480321A434A6090F82410490706D5DC
:101E50000168036B4A6822F480221A434A6090F8B2
:101E60002410090706D50168436B4A6822F4004232
:101E70001A434A6090F82410C90606D50168836B9E
:101E80008A6822F480521A438A6090F824108906E6
:101E900006D50168C36B8A6822F400521A438A602F
:101EA00090F82410490611D50168036C4A6822F4A1
:101EB00080121A434A60016CB1F5801F06D1016897
:101EC000436C4A6822F4C0021A434A6090F8241016
:101ED000090606D50168826C486820F4002010438A
:101EE0004860704738B500250446C566FEF72AFFEE
:101EF00003462068006800070BD56FF07E40009015
:101F0000002220464FF4001100F0D6F908B103205A
:101F100038BD202084F8690084F8685084F86A008D
:101F2000002038BD10B5806B0021A0F85A10A0F831
:101F30005210FFF7E2FC10BD10B5846B0021A4F82D
:101F40005A10A4F8521094F86900212806D120688C
:101F50008068000602D5204600F03DF894F86A003B
:101F6000222806D120688068400602D5204600F06D
:101F700024F8E06E40F01000E0662046FFF7BDFC5C
:101F800010BD10B501680968806BC9050DD400212A
:101F9000A0F8521001688A6822F080028A60006806
:101FA000016841F04001016010BDFFF753FE10BD14
:101FB00010B5806BFFF74FFE10BD016820220B6843
:101FC00023F490730B6001688B6823F001038B602E
:101FD00080F86A207047016820220B6823F0C00354
:101FE0000B6080F86920704710B590F86A10B0F85F
:101FF0005C202229016805D0886940F008008861CA
:10200000022010BD8368B3F5805F01D1036973B10D
:102010004B6A416D13404A1C42650B70B0F85A1070
:10202000491E0904090CA0F85A1008D016E04B6AA2
:10203000416D13400B80416D891C4165EEE70168DD
:1020400020220B6823F490730B6001688B6823F0E7
:1020500001038B6080F86A20FFF7B4FD002010BDFB
:102060002DE9F04704468068874B884F2668D4E9FD
:102070000415E2690843D6F800C010211543002278
:10208000284315460CEA030C814B4CEA000CC6F8B9
:1020900000C04FF400492068D4F80CC0466826F40C
:1020A000405646EA0C0646602668D4F82080A069AF
:1020B000D6F808C040EA08002CF4306C4CEA000C5A
:1020C000C6F808C02068B8420AD11B6813F00303A1
:1020D00052D0012B7AD0022B76D0032B79D177E026
:1020E0006C4EB0420AD11B6813F00C036AD0042B6B
:1020F0006CD0082B68D00C2B6BD169E0664EB042D7
:102100000AD11B6813F030035CD0102B5ED0202B5B
:102110005AD0302B5DD15BE0604EB0420AD11B68D3
:1021200013F0C0034ED0402B50D0802B4CD0C02B8E
:102130004FD14DE05A4EB0420DD11B6813F440739D
:1021400040D0B3F5807F41D0B3F5007F3CD0B3F5EC
:10215000407F3ED13CE0534EB0420FD11B6813F498
:10216000406309D0B3F5806F30D0B3F5006F2BD04A
:10217000B3F5406F2DD12BE001212AE04A4EB04249
:102180000DD11B6813F440531CD0B3F5805F1DD0F4
:10219000B3F5005F18D0B3F5405F1AD118E0434E95
:1021A000B04216D11B6813F440430BD0B3F5804FF7
:1021B0000CD04B4508D0B3F5404F0AD108E005E0FC
:1021C00002E0FFE7002104E0022102E0042100E038
:1021D0000821E6694E452AD109291FD2DFE801F01E
:1021E0000508141E171E1E1E1A00FFF785F901E0D0
:1021F000FFF792F90146D4F80400490001EB5001C1
:10220000B1FBF0F082B20AE029496068F6E7FFF717
:1022100093F9EFE760684FF48031EFE7012521681B
:1022200022F00F00C2F342021043C86028E00929DF
:1022300025D2DFE801F005080B24102424241C001B
:10224000FFF75AF909E0FFF767F906E06168194AF4
:1022500002EB51020EE0FFF76FF90146D4E90020CE
:1022600001EB5001B1FBF0F080B2D06008E0616892
:1022700009EB5102B2FBF1F189B2C16000E0012526
:102280002846BDE8F0870000F369FFEF0010014029
:10229000903802400044004000480040004C00409C
:1022A000005000400014014000780040007C0040D5
:1022B0000048E8010024F4002DE9F0419846174653
:1022C0000E460446069D1DE0681C1BD02DB1FEF78E
:1022D00039FDA0EB0800A84214D321682020002279
:1022E0000B6823F4D0730B6021688B6823F0010323
:1022F0008B6084F8690084F86A00032084F8682001
:10230000BDE8F0812068C06936EA000004D00020F2
:10231000B842D9D00020F3E70120F9E7FEE700003A
:102320000FB4054B10B503A9044A029800F0EEF86B
:1023300010BC5DF814FB0000452C000820000020B4
:102340000FB4084B10B504A902AA039800F0DEF8F8
:10235000044602A9002000F070FC204610BC5DF885
:1023600014FB00003B2C000802E008C8121F08C143
:10237000002AFAD170477047002001E001C1121F06
:10238000002AFBD1704700002DE9FF5F82B00021D9
:10239000DDE90430020DDDF840B0034318D044F607
:1023A0001050A2F2FF3242431514119801281FD099
:1023B000A5EB0B00401C5FEA000A4FF000064E4FF1
:1023C000DFF83891B046504615D5CAF1000413E045
:1023D000119801244AA3012801D16FEA0B01029848
:1023E000119AC0E90031C0E9024206B0BDE8F09F91
:1023F000CBF10000DFE704460021404A491842EBD8
:102400000450CDE9001012E0E00707D032463B4609
:1024100040464946FEF713F88046894632463B4619
:1024200010461946FEF70BF806460F466410002CBE
:10243000EAD1DDE90401DDE90023BAF1000F06DA93
:10244000FDF7FDFF42464B46FDF7F9FF05E0FEF7BD
:1024500068F842464B46FEF764F804460E460022F2
:10246000284BFEF7E5F803D84FF0FF30014607E0B0
:102470000022254B20463146FDF73AFFFEF7C0F813
:10248000102409E0002C0ADB0A220023FDF7B8FE25
:10249000039B30321A55641E50EA0102F2D1641CCB
:1024A000039AC4F111031444119A012A03D00122A2
:1024B00008430DD10AE0084304D000204FF0110B6F
:1024C000119072E7A3EB0B056D1E0DE05B4504DD7B
:1024D0004FF0000205F1010504E003DA4FF00002BD
:1024E000A5F10105002AECD002981199C0E902314A
:1024F000C0E9004579E70000000014400000F03F0B
:10250000300000000000F0430000E03F2DE9FF4FE5
:1025100095B09B468946064600250FE2252877D1CF
:1025200000242746F84A0121059400E0044316F8E8
:10253000013F203B01FA03F01042F7D130782A28FE
:1025400011D06FF02F033078A0F13002092A16D88D
:10255000059A44F0020402EB820203EB42021044AB
:10256000761C0590EFE759F8042B0592002A03DA50
:10257000504244F40054059044F00204761C307834
:102580002E2816D116F8010F44F004042A280DD085
:102590006FF02F023078A0F13003092B09D807EB38
:1025A000870302EB4303C718761CF3E759F8047B53
:1025B000761C30786C280FD006DC4C2817D06828A1
:1025C0000DD06A2814D104E0742810D07A280FD1D5
:1025D0000DE044F400140AE044F4801401E044F4F3
:1025E00040147278824202D104F58014761C761C65
:1025F000307866280BD013DC582877D009DC002807
:1026000075D04528F6D04628F4D047281AD19DE148
:1026100018E0632835D0642879D0652812D195E177
:10262000702873D008DC6728F1D069286FD06E2835
:102630000DD06F2806D1B5E073282CD0752875D041
:10264000782874D05A46179990476D1C75E1C4F3E9
:102650000250022809D003280DD0D9F80010042810
:102660000DD00D6009F1040967E1D9F80010EA17EF
:10267000C1E90052F6E7D9F800100D80F2E70D70BD
:10268000F0E719F8041B8DF8001000208DF8010008
:10269000EA46012003E059F804AB4FF0FF30610730
:1026A0004FF0000102D40DE008F101018846B94263
:1026B0000FDA8045F8DB1AF808100029F4D108E099
:1026C00008F1010188468142FADB1AF80810002956
:1026D000F6D105985B46A0EB080721463846179AC5
:1026E00000F094FA284400EB080507E04DE029E1EA
:1026F0000DE01AF8010B5A4617999047B8F10108F6
:10270000F7D25B4621463846179A13E142E00A2287
:102710000092C4F302524FF0000A022A08D059F87E
:1027200004CB032A4FEAEC710AD00DE029E02AE03D
:1027300009F1070121F00702F2E802C1914609E020
:102740000FFA8CFC4FEAEC71042A03D14FFA8CFC8F
:102750004FEAEC71002907DA0A460021DCF1000C8F
:1027600061EB02012D2202E0220504D52B228DF817
:102770000420012203E0E20701D02022F7E790467F
:1027800059E00A2102E010220DE010214FF0000A6A
:1027900000910BE010224FF0000A44F004040827D7
:1027A000009203E008224FF0000A0092C4F30252A4
:1027B000022A05D059F804CB0021032A08D009E0E9
:1027C00009F1070121F00702F2E802C1914605E094
:1027D0001FFA8CFC042A01D10CF0FF0C4FF000080A
:1027E000220728D5702806D0009B83F0100353EAF7
:1027F0000A0305D00EE040228DF80420012208E0F3
:102800005CEA010206D030228DF804208DF8050024
:1028100002229046009B83F0080353EA0A030AD180
:102820005CEA010201D1620705D530228DF804204F
:102830004FF001087F1E582804D034A003900EA842
:1028400002900DE036A0F9E753466046009AFDF786
:10285000D7FC84460398825C0298401E0290027066
:102860005CEA0100F0D1029806A9081A00F1200ADA
:10287000600702D524F4803400E00127574502DDCB
:10288000A7EB0A0000E0002000EB0A010090059889
:102890004144401A0590E00306D45B462146179A4E
:1028A000059800F0B3F90544002706E001A85A4650
:1028B000C05D179990476D1C7F1C4745F6DBE00310
:1028C0000CD55B462146179A059800F09FF9054400
:1028D00004E030205A46179990476D1C0099481E15
:1028E00000900029F5DC08E0029802995A46007829
:1028F000491C0291179990476D1CBAF10001AAF189
:10290000010AF1DC65E100000928010030313233B1
:10291000343536373839616263646566000000001B
:102920003031323334353637383941424344454605
:102930000000000000F058F90544761C30780028AB
:102940007FF4ECAD19B02846BDE8F08F620700D4E3
:10295000062709F1070222F0070CFCE80223E146F2
:1029600003F000485FEA080C02D00FF2702C0DE073
:102970005FEA045C02D50FF2682C07E05FEAC47CD2
:1029800002D00FF2602C01E0AFF2700C4FF0FF3874
:1029900023F00043CDF850C065280CD006DC452854
:1029A00009D046281DD047283DD13DE0662818D0E3
:1029B00067287ED138E00021112F01DB112000E0D3
:1029C000781CCDE9000106A90EA8FFF7DDFCDDE9C2
:1029D0000F010E9A03910021009207F1010A049160
:1029E0004DE04FF000400097CDE9011006A90EA878
:1029F000FFF7CAFCDDE90F0203920E9B119900223A
:102A0000DDF80CA00093049211B9791C00EB010AC7
:102A1000B7EB0A0004D4C0F1FF3007F1010A0490BB
:102A2000AAEB0700019044E0012F00DA0127002102
:102A3000112F01DD112000E03846CDE9000106A983
:102A40000EA8FFF7A1FCDDE90F010E9A039100210A
:102A500004910092BA4621070CD40399514500DA3B
:102A60008A46BAF1010F05DD009AAAF10101515C15
:102A7000302908D0B84202DA10F1040F06DA012139
:102A8000CDE9011015E0AAF10101E9E7002805DC14
:102A9000049901440491AAEB000102E0411C514554
:102AA00000DD8A460499401A401C01904FF0004016
:102AB0000290200704D40198504501DBCDF8048032
:102AC00000208DF84F0002980DF14F07B0F1004F34
:102AD00025D02B200E9002984FF0020800280CDA27
:102AE000404202902D200E9007E00A210298FDF747
:102AF000CAFB3031029007F8011DB8F10001A8F1BE
:102B00000108F2DC02980028EFD1791E0E980870B7
:102B1000307800F0200040F0450007F8020D12A8C0
:102B2000C01B00F107081498007800B1012000EBE9
:102B30000A01019801EBE07105984144401A401EDA
:102B40000590E00306D45B462146179A059800F0ED
:102B50005DF805441498007818B15A4617999047C3
:102B60006D1CE00324D55B462146179A059800F0BA
:102B70004DF805441CE00498002807DBDDE903015B
:102B8000884203DD0098405C179901E017993020D6
:102B90005A469047049805F10105401C049001989D
:102BA000401E019004D12E205A46179990476D1C63
:102BB000BAF10001AAF1010ADDDC05E017F8010B0A
:102BC0005A46179990476D1CB8F10001A8F1010809
:102BD000F4DC5B462146179A0598ABE62D00000011
:102BE0002B000000200000002DE9F04104460025E4
:102BF0001E461746880404D405E039462020B04715
:102C00006D1C641EF9D52846BDE8F0812DE9F04120
:102C1000044600251E469046C80301D5302700E033
:102C20002027880404D505E041463846B0476D1C8E
:102C3000641EF9D52846BDE8F0810A68531C0B6074
:102C40001070704738B508A1044602466846FFF781
:102C500077FB06480A226946FEF7B6FF044908706A
:102C600000B1FEE7204638BD2563000024000020A7
:102C700000000020FEF774F8FFF752F8FFF70CF899
:102C8000FEF7ECFFFFF716F84FF42F740348FFF739
:102C900047FB2046FDF758FFF8E700000100002041
:102CA00000061016000610160000000000000000CC
:102CB00001020304060708090000000001020304E2
:102CC000E02C000800000020240000006823000819
:102CD000042D00082400002034050000782300089B
:102CE0000068656C6C6F20776F726C640D0A000071
:102CF0000100000010000000000000000024F400AB
:042D000000000000CF
:04000005080001C925
:00000001FF
